{
  "_format": "hh-sol-artifact-1",
  "contractName": "BuyMeACoffee",
  "sourceName": "contracts/BuyMeACoffee.sol",
  "abi": [
    {
      "inputs": [],
      "stateMutability": "nonpayable",
      "type": "constructor"
    },
    {
      "anonymous": false,
      "inputs": [
        {
          "indexed": true,
          "internalType": "address",
          "name": "from",
          "type": "address"
        },
        {
          "indexed": false,
          "internalType": "uint256",
          "name": "timestamp",
          "type": "uint256"
        },
        {
          "indexed": false,
          "internalType": "string",
          "name": "name",
          "type": "string"
        },
        {
          "indexed": false,
          "internalType": "string",
          "name": "message",
          "type": "string"
        }
      ],
      "name": "NewMemo",
      "type": "event"
    },
    {
      "inputs": [
        {
          "internalType": "string",
          "name": "_name",
          "type": "string"
        },
        {
          "internalType": "string",
          "name": "_message",
          "type": "string"
        }
      ],
      "name": "buyBigCoffee",
      "outputs": [],
      "stateMutability": "payable",
      "type": "function"
    },
    {
      "inputs": [
        {
          "internalType": "string",
          "name": "_name",
          "type": "string"
        },
        {
          "internalType": "string",
          "name": "_message",
          "type": "string"
        }
      ],
      "name": "buyCoffee",
      "outputs": [],
      "stateMutability": "payable",
      "type": "function"
    },
    {
      "inputs": [
        {
          "internalType": "address payable",
          "name": "_address",
          "type": "address"
        }
      ],
      "name": "changeOwner",
      "outputs": [],
      "stateMutability": "nonpayable",
      "type": "function"
    },
    {
      "inputs": [],
      "name": "getMemoCounts",
      "outputs": [
        {
          "internalType": "uint256",
          "name": "",
          "type": "uint256"
        }
      ],
      "stateMutability": "view",
      "type": "function"
    },
    {
      "inputs": [],
      "name": "getMemos",
      "outputs": [
        {
          "components": [
            {
              "internalType": "address",
              "name": "from",
              "type": "address"
            },
            {
              "internalType": "uint256",
              "name": "timestamp",
              "type": "uint256"
            },
            {
              "internalType": "string",
              "name": "name",
              "type": "string"
            },
            {
              "internalType": "string",
              "name": "message",
              "type": "string"
            }
          ],
          "internalType": "struct BuyMeACoffee.Memo[]",
          "name": "",
          "type": "tuple[]"
        }
      ],
      "stateMutability": "view",
      "type": "function"
    },
    {
      "inputs": [],
      "name": "getOwner",
      "outputs": [
        {
          "internalType": "address",
          "name": "",
          "type": "address"
        }
      ],
      "stateMutability": "view",
      "type": "function"
    },
    {
      "inputs": [],
      "name": "withdrawTips",
      "outputs": [],
      "stateMutability": "nonpayable",
      "type": "function"
    }
  ],
  "bytecode": "0x608060405234801561001057600080fd5b50336000806101000a81548173ffffffffffffffffffffffffffffffffffffffff021916908373ffffffffffffffffffffffffffffffffffffffff16021790555061101e806100606000396000f3fe6080604052600436106100705760003560e01c8063865c51721161004e578063865c5172146100c4578063893d20e8146100ef5780639a3f19ea1461011a578063a6f9dae11461014557610070565b8063204206e1146100755780633aaa74b214610091578063715b4b15146100a8575b600080fd5b61008f600480360381019061008a9190610956565b61016e565b005b34801561009d57600080fd5b506100a66102f6565b005b6100c260048036038101906100bd9190610956565b610356565b005b3480156100d057600080fd5b506100d9610523565b6040516100e69190610c45565b60405180910390f35b3480156100fb57600080fd5b50610104610706565b6040516101119190610c2a565b60405180910390f35b34801561012657600080fd5b5061012f61072f565b60405161013c9190610ca7565b60405180910390f35b34801561015157600080fd5b5061016c6004803603810190610167919061092d565b61073c565b005b600034116101b1576040517f08c379a00000000000000000000000000000000000000000000000000000000081526004016101a890610c87565b60405180910390fd5b600160405180608001604052803373ffffffffffffffffffffffffffffffffffffffff16815260200142815260200184815260200183815250908060018154018082558091505060019003906000526020600020906004020160009091909190915060008201518160000160006101000a81548173ffffffffffffffffffffffffffffffffffffffff021916908373ffffffffffffffffffffffffffffffffffffffff16021790555060208201518160010155604082015181600201908051906020019061028092919061080d565b50606082015181600301908051906020019061029d92919061080d565b5050503373ffffffffffffffffffffffffffffffffffffffff167fc56140e05f516509ae28110e0f72e17558a7561630dad2647c3ae87d986e365c4284846040516102ea93929190610cc2565b60405180910390a25050565b60008054906101000a900473ffffffffffffffffffffffffffffffffffffffff1673ffffffffffffffffffffffffffffffffffffffff166108fc479081150290604051600060405180830381858888f1935050505061035457600080fd5b565b660aa87bee5380003410156103a0576040517f08c379a000000000000000000000000000000000000000000000000000000000815260040161039790610c87565b60405180910390fd5b600160405180608001604052803373ffffffffffffffffffffffffffffffffffffffff168152602001428152602001846040516020016103e09190610bfd565b604051602081830303815290604052815260200183815250908060018154018082558091505060019003906000526020600020906004020160009091909190915060008201518160000160006101000a81548173ffffffffffffffffffffffffffffffffffffffff021916908373ffffffffffffffffffffffffffffffffffffffff16021790555060208201518160010155604082015181600201908051906020019061048e92919061080d565b5060608201518160030190805190602001906104ab92919061080d565b5050503373ffffffffffffffffffffffffffffffffffffffff167fc56140e05f516509ae28110e0f72e17558a7561630dad2647c3ae87d986e365c42846040516020016104f89190610bfd565b6040516020818303038152906040528460405161051793929190610cc2565b60405180910390a25050565b60606001805480602002602001604051908101604052809291908181526020016000905b828210156106fd57838290600052602060002090600402016040518060800160405290816000820160009054906101000a900473ffffffffffffffffffffffffffffffffffffffff1673ffffffffffffffffffffffffffffffffffffffff1673ffffffffffffffffffffffffffffffffffffffff168152602001600182015481526020016002820180546105da90610e5e565b80601f016020809104026020016040519081016040528092919081815260200182805461060690610e5e565b80156106535780601f1061062857610100808354040283529160200191610653565b820191906000526020600020905b81548152906001019060200180831161063657829003601f168201915b5050505050815260200160038201805461066c90610e5e565b80601f016020809104026020016040519081016040528092919081815260200182805461069890610e5e565b80156106e55780601f106106ba576101008083540402835291602001916106e5565b820191906000526020600020905b8154815290600101906020018083116106c857829003601f168201915b50505050508152505081526020019060010190610547565b50505050905090565b60008060009054906101000a900473ffffffffffffffffffffffffffffffffffffffff16905090565b6000600180549050905090565b60008054906101000a900473ffffffffffffffffffffffffffffffffffffffff1673ffffffffffffffffffffffffffffffffffffffff163373ffffffffffffffffffffffffffffffffffffffff16146107ca576040517f08c379a00000000000000000000000000000000000000000000000000000000081526004016107c190610c67565b60405180910390fd5b806000806101000a81548173ffffffffffffffffffffffffffffffffffffffff021916908373ffffffffffffffffffffffffffffffffffffffff16021790555050565b82805461081990610e5e565b90600052602060002090601f01602090048101928261083b5760008555610882565b82601f1061085457805160ff1916838001178555610882565b82800160010185558215610882579182015b82811115610881578251825591602001919060010190610866565b5b50905061088f9190610893565b5090565b5b808211156108ac576000816000905550600101610894565b5090565b60006108c36108be84610d2c565b610d07565b9050828152602081018484840111156108db57600080fd5b6108e6848285610e1c565b509392505050565b6000813590506108fd81610fd1565b92915050565b600082601f83011261091457600080fd5b81356109248482602086016108b0565b91505092915050565b60006020828403121561093f57600080fd5b600061094d848285016108ee565b91505092915050565b6000806040838503121561096957600080fd5b600083013567ffffffffffffffff81111561098357600080fd5b61098f85828601610903565b925050602083013567ffffffffffffffff8111156109ac57600080fd5b6109b885828601610903565b9150509250929050565b60006109ce8383610b75565b905092915050565b6109df81610dce565b82525050565b6109ee81610dce565b82525050565b60006109ff82610d6d565b610a098185610d90565b935083602082028501610a1b85610d5d565b8060005b85811015610a575784840389528151610a3885826109c2565b9450610a4383610d83565b925060208a01995050600181019050610a1f565b50829750879550505050505092915050565b6000610a7482610d78565b610a7e8185610da1565b9350610a8e818560208601610e2b565b610a9781610f1f565b840191505092915050565b6000610aad82610d78565b610ab78185610db2565b9350610ac7818560208601610e2b565b610ad081610f1f565b840191505092915050565b6000610ae682610d78565b610af08185610dc3565b9350610b00818560208601610e2b565b80840191505092915050565b6000610b19600383610dc3565b9150610b2482610f30565b600382019050919050565b6000610b3c602183610db2565b9150610b4782610f59565b604082019050919050565b6000610b5f601a83610db2565b9150610b6a82610fa8565b602082019050919050565b6000608083016000830151610b8d60008601826109d6565b506020830151610ba06020860182610bdf565b5060408301518482036040860152610bb88282610a69565b91505060608301518482036060860152610bd28282610a69565b9150508091505092915050565b610be881610e12565b82525050565b610bf781610e12565b82525050565b6000610c0882610b0c565b9150610c148284610adb565b9150610c1f82610b0c565b915081905092915050565b6000602082019050610c3f60008301846109e5565b92915050565b60006020820190508181036000830152610c5f81846109f4565b905092915050565b60006020820190508181036000830152610c8081610b2f565b9050919050565b60006020820190508181036000830152610ca081610b52565b9050919050565b6000602082019050610cbc6000830184610bee565b92915050565b6000606082019050610cd76000830186610bee565b8181036020830152610ce98185610aa2565b90508181036040830152610cfd8184610aa2565b9050949350505050565b6000610d11610d22565b9050610d1d8282610e90565b919050565b6000604051905090565b600067ffffffffffffffff821115610d4757610d46610ef0565b5b610d5082610f1f565b9050602081019050919050565b6000819050602082019050919050565b600081519050919050565b600081519050919050565b6000602082019050919050565b600082825260208201905092915050565b600082825260208201905092915050565b600082825260208201905092915050565b600081905092915050565b6000610dd982610df2565b9050919050565b6000610deb82610df2565b9050919050565b600073ffffffffffffffffffffffffffffffffffffffff82169050919050565b6000819050919050565b82818337600083830152505050565b60005b83811015610e49578082015181840152602081019050610e2e565b83811115610e58576000848401525b50505050565b60006002820490506001821680610e7657607f821691505b60208210811415610e8a57610e89610ec1565b5b50919050565b610e9982610f1f565b810181811067ffffffffffffffff82111715610eb857610eb7610ef0565b5b80604052505050565b7f4e487b7100000000000000000000000000000000000000000000000000000000600052602260045260246000fd5b7f4e487b7100000000000000000000000000000000000000000000000000000000600052604160045260246000fd5b6000601f19601f8301169050919050565b7f2a2a2a0000000000000000000000000000000000000000000000000000000000600082015250565b7f6f6e6c79206f776e65722063616e207472616e73666572206f776e657273686960008201527f7000000000000000000000000000000000000000000000000000000000000000602082015250565b7f63616e27742062757920636f6666656520666f72206672656521000000000000600082015250565b610fda81610de0565b8114610fe557600080fd5b5056fea2646970667358221220984bd4b8a07fb8916f8e6b2ac26ff7431fb237161b872dfee1dd01eed4990f8f64736f6c63430008040033",
  "linkReferences": {},
  "deployedLinkReferences": {}
}